:020000040000fa
:080000000002040000000000f2
:020000040000fa
:04000800d40200001e
:020000040000fa
:04000c00d40200001a
:020000040000fa
:04001000d402000016
:020000040000fa
:04001400d402000012
:020000040000fa
:04001800d40200000e
:020000040000fa
:04001c00d40200000a
:020000040000fa
:04002000d402000006
:020000040000fa
:04002400d402000002
:020000040000fa
:04002800d4020000fe
:020000040000fa
:04002c00d4020000fa
:020000040000fa
:04003000d4020000f6
:020000040000fa
:04003400d4020000f2
:020000040000fa
:04003800d4020000ee
:020000040000fa
:04003c00d4020000ea
:020000040000fa
:04004000d4020000e6
:020000040000fa
:04004400c8020000ee
:020000040000fa
:04004800d4020000de
:020000040000fa
:04004c00d4020000da
:020000040000fa
:04005000d4020000d6
:020000040000fa
:04005400d4020000d2
:020000040000fa
:04005800d4020000ce
:020000040000fa
:04005c00d4020000ca
:020000040000fa
:04006000d4020000c6
:020000040000fa
:04006400d4020000c2
:020000040000fa
:04006800d4020000be
:020000040000fa
:04006c00d4020000ba
:020000040000fa
:04007000d4020000b6
:020000040000fa
:04007400d4020000b2
:020000040000fa
:04007800d4020000ae
:020000040000fa
:04007c00d4020000aa
:020000040000fa
:04008000d4020000a6
:020000040000fa
:04008400d4020000a2
:020000040000fa
:04008800d40200009e
:020000040000fa
:04008c00d40200009a
:020000040000fa
:04009000d402000096
:020000040000fa
:04009400d402000092
:020000040000fa
:04009800d40200008e
:020000040000fa
:04009c00d40200008a
:020000040000fa
:0400a000d402000086
:020000040000fa
:0400a400d402000082
:020000040000fa
:0400a800d40200007e
:020000040000fa
:0400ac00d40200007a
:020000040000fa
:0400b000d402000076
:020000040000fa
:0400b400d402000072
:020000040000fa
:0400b800d40200006e
:020000040000fa
:0400bc00d40200006a
:020000040000fa
:0400c000d402000066
:020000040000fa
:0400c400d402000062
:020000040000fa
:0400c800d40200005e
:020000040000fa
:0400cc00d40200005a
:020000040000fa
:0400d000d402000056
:020000040000fa
:0400d400d402000052
:020000040000fa
:0400d800d40200004e
:020000040000fa
:0400dc00d40200004a
:020000040000fa
:0400e000d402000046
:020000040000fa
:0400e400d402000042
:020000040000fa
:0400e800d40200003e
:020000040000fa
:0400ec00d40200003a
:020000040000fa
:0400f000d402000036
:020000040000fa
:0400f400d402000032
:020000040000fa
:0400f800d40200002e
:020000040000fa
:0400fc00d40200002a
:020000040000fa
:04010000d402000025
:020000040000fa
:04010400d402000021
:020000040000fa
:04010800d40200001d
:020000040000fa
:04010c00d402000019
:020000040000fa
:04011000d402000015
:020000040000fa
:04011400d402000011
:020000040000fa
:04011800d40200000d
:020000040000fa
:04011c00d402000009
:020000040000fa
:04012000d402000005
:020000040000fa
:04012400d402000001
:020000040000fa
:04012800d4020000fd
:020000040000fa
:04012c00d4020000f9
:020000040000fa
:04013000d4020000f5
:020000040000fa
:04013400d4020000f1
:020000040000fa
:04013800d4020000ed
:020000040000fa
:04013c00d4020000e9
:020000040000fa
:04014000d4020000e5
:020000040000fa
:04014400d4020000e1
:020000040000fa
:04014800d4020000dd
:020000040000fa
:04014c00d4020000d9
:020000040000fa
:04015000d4020000d5
:020000040000fa
:04015400d4020000d1
:020000040000fa
:04015800d4020000cd
:020000040000fa
:04015c00d4020000c9
:020000040000fa
:04020800d40200001c
:020000040000fa
:04020c00d402000018
:020000040000fa
:04021000d402000014
:020000040000fa
:04021400d402000010
:020000040000fa
:04021800d40200000c
:020000040000fa
:04021c00d402000008
:020000040000fa
:04022000d402000004
:020000040000fa
:04022400d402000000
:020000040000fa
:04022800d4020000fc
:020000040000fa
:04022c00d4020000f8
:020000040000fa
:04023000d4020000f4
:020000040000fa
:04023400d4020000f0
:020000040000fa
:04023800d4020000ec
:020000040000fa
:04023c00d4020000e8
:020000040000fa
:04024000d4020000e4
:020000040000fa
:04024400c8020000ec
:020000040000fa
:04024800d4020000dc
:020000040000fa
:04024c00d4020000d8
:020000040000fa
:04025000d4020000d4
:020000040000fa
:04025400d4020000d0
:020000040000fa
:04025800d4020000cc
:020000040000fa
:04025c00d4020000c8
:020000040000fa
:04026000d4020000c4
:020000040000fa
:04026400d4020000c0
:020000040000fa
:04026800d4020000bc
:020000040000fa
:04026c00d4020000b8
:020000040000fa
:04027000d4020000b4
:020000040000fa
:04027400d4020000b0
:020000040000fa
:04027800d4020000ac
:020000040000fa
:04027c00d4020000a8
:020000040000fa
:04028000d4020000a4
:020000040000fa
:04028400d4020000a0
:020000040000fa
:04028800d40200009c
:020000040000fa
:04028c00d402000098
:020000040000fa
:04029000d402000094
:020000040000fa
:04029400d402000090
:020000040000fa
:04029800d40200008c
:020000040000fa
:04029c00d402000088
:020000040000fa
:0402a000d402000084
:020000040000fa
:0402a400d402000080
:020000040000fa
:0402a800d40200007c
:020000040000fa
:0402ac00d402000078
:020000040000fa
:0402b000d402000074
:020000040000fa
:0402b400d402000070
:020000040000fa
:0402b800d40200006c
:020000040000fa
:0402bc00d402000068
:020000040000fa
:0402c000d402000064
:020000040000fa
:0402c400d402000060
:020000040000fa
:0402c800d40200005c
:020000040000fa
:0402cc00d402000058
:020000040000fa
:0402d000d402000054
:020000040000fa
:0402d400d402000050
:020000040000fa
:0402d800d40200004c
:020000040000fa
:0402dc00d402000048
:020000040000fa
:0402e000d402000044
:020000040000fa
:0402e400d402000040
:020000040000fa
:0402e800d40200003c
:020000040000fa
:0402ec00d402000038
:020000040000fa
:0402f000d402000034
:020000040000fa
:0402f400d402000030
:020000040000fa
:0402f800d40200002c
:020000040000fa
:0402fc00d402000028
:020000040000fa
:04030000d402000023
:020000040000fa
:04030400d40200001f
:020000040000fa
:04030800d40200001b
:020000040000fa
:04030c00d402000017
:020000040000fa
:04031000d402000013
:020000040000fa
:04031400d40200000f
:020000040000fa
:04031800d40200000b
:020000040000fa
:04031c00d402000007
:020000040000fa
:04032000d402000003
:020000040000fa
:04032400d4020000ff
:020000040000fa
:04032800d4020000fb
:020000040000fa
:04032c00d4020000f7
:020000040000fa
:04033000d4020000f3
:020000040000fa
:04033400d4020000ef
:020000040000fa
:04033800d4020000eb
:020000040000fa
:04033c00d4020000e7
:020000040000fa
:04034000d4020000e3
:020000040000fa
:04034400d4020000df
:020000040000fa
:04034800d4020000db
:020000040000fa
:04034c00d4020000d7
:020000040000fa
:04035000d4020000d3
:020000040000fa
:04035400d4020000cf
:020000040000fa
:04035800d4020000cb
:020000040000fa
:04035c00d4020000c7
:020000040000fa
:100400000f8020000edf20000e0188000000000099
:10041000000020000000e000020032000001200087
:100420002002880014000700610007000000e000bf
:1004300003003a0000002000010020000200370005
:100440000000200001002000810f70000100320038
:1004500014000700000020000000e000020032004d
:100460000000020000000000520402000000000032
:100470000040da000000fe004440a9000000200017
:100480000000e0000300320000002000a00188000e
:100490004440a800000006008a1f78008b1f7800e7
:1004a0000000060091018800800478000000eb0045
:1004b0001a003700e284440032a0b4009905ba0063
:1004c000e284440032a0b4009906ba00e2844400f9
:1004d00032a0b4000006eb00476fde00fd07b2005b
:1004e000636ce10003003a00ebff07000000eb0043
:1004f0000a003700606ce10004003a00005deb0088
:100500008b05e900fdff3e00040037006168e10053
:10051000010032000086eb000b00070019c7ba008b
:100520001905ba000e04e00003003a000a00e000da
:10053000e0ff3a0000000600fe07b2009e018800be
:100540008a047800f5ff3700395dba008b05e900b1
:100550000c003200295dba008b05e900080032006a
:100560000c00e00003003a00e284440032a0b40032
:10057000f5ff370019ddba008b05e900faff3a00f4
:100580008904e800e184440032a0b40000000600c1
:100590000000fa0084e0a90011e1a9000621ef00a3
:1005a0000080fa00004006000040da000000fe0073
:0405b0000000050042
:020000040000fa
:1005b4000000fa000080eb0060198800c902a9005d
:1005c400c882a800c042a800c082a8006800a80091
:1005d4006820a8006bc0a8000080fa000000060094
:1005e4000000fa0018003700101680007000600048
:1005f4000000e0000400320050168000700060002b
:100604000000e00002003a00cd02a8000e0037000e
:10061400601680004800de006140600000c0ea000f
:10062400614060000080fb00610060004800dd0064
:10063400611680000180a10001007000601688002e
:10064400803e20008c0007001016800064006000cb
:100654000000e000e4ff32001800370010168000ac
:10066400640060000000e0000400320050168000c6
:10067400700060000000e00002003a00cd02a80013
:100684000e003700601680004800de006140600004
:1006940000c0ea00614060000080fb00610060006f
:1006a4004800dd00611680000180a1000100700097
:1006b40060168800007d20006f000700101680007f
:1006c400700060000000e000e4ff32001800370012
:1006d40010168000700060000000e000040032008a
:1006e40010168000640060000000e00002003a0080
:1006f400cd02a8000e003700601680004800de001e
:100704006140600000c0ea00614060000080fb00be
:10071400610060004800dd00611680000180a100d6
:10072400010070006016880080bb200052000700a2
:1007340050168000700060000000e000e4ff32000a
:10074400cd02a9000080fa00000006000400fa00af
:10075400100798001e009000e80f500003003a00b4
:100764000040eb00004f7800100037009e0090001e
:10077400401f2000808f500003003a0060c6b30081
:10078400004f7800090037009e009000000220000e
:10079400808f500003003a0050c5b300004f78002a
:1007a4000200370050c5b300004f780011028000ea
:1007b400000e20000100700010028800213a800021
:1007c400f08f2f0000806000203a88001e01fb009b
:1007d40080072000a109200033742000804978009c
:1007e40081497800824978001200200060042000ca
:1007f4007105200023742000804978008149780025
:10080400824978004207a80000000000103a8000e6
:10081400610060000000e000fcff3a00110280006b
:10082400f0f12f0000806000100288000080fa00c0
:10083400000006000000fa0084e0a90094e0a8008b
:100844003105800000002700010070003005880099
:1008540011a1a9001061a9001021a900810880003c
:10086400f0fc2f00008060000040a0008008880099
:100874000080fa00000006000200fa00000f780071
:10088400ecff07001e0078000000400060088800ac
:1008940011e1a8000140fe000080fa0000000600fb
:1008a4000000fa0000022000a8ff070040ff070034
:0808b4004bff0700feff3700b7
:020000040000fa
:0200000401f009
:040010007f0000006d
:00000001FF
